{
  "contractName": "Adoption",
  "abi": [
    {
      "constant": true,
      "inputs": [
        {
          "internalType": "uint256",
          "name": "",
          "type": "uint256"
        }
      ],
      "name": "adopters",
      "outputs": [
        {
          "internalType": "address",
          "name": "",
          "type": "address"
        }
      ],
      "payable": false,
      "stateMutability": "view",
      "type": "function"
    },
    {
      "constant": false,
      "inputs": [
        {
          "internalType": "uint256",
          "name": "petId",
          "type": "uint256"
        }
      ],
      "name": "adopt",
      "outputs": [
        {
          "internalType": "uint256",
          "name": "",
          "type": "uint256"
        }
      ],
      "payable": false,
      "stateMutability": "nonpayable",
      "type": "function"
    },
    {
      "constant": true,
      "inputs": [],
      "name": "getPetId",
      "outputs": [
        {
          "internalType": "address[16]",
          "name": "",
          "type": "address[16]"
        }
      ],
      "payable": false,
      "stateMutability": "view",
      "type": "function"
    }
  ],
  "bytecode": "0x608060405234801561001057600080fd5b50610322806100206000396000f3fe608060405234801561001057600080fd5b50600436106100415760003560e01c806343ae80d3146100465780636ef12010146100b45780638588b2c5146100fa575b600080fd5b6100726004803603602081101561005c57600080fd5b810190808035906020019092919050505061013c565b604051808273ffffffffffffffffffffffffffffffffffffffff1673ffffffffffffffffffffffffffffffffffffffff16815260200191505060405180910390f35b6100bc61016f565b6040518082601060200280838360005b838110156100e75780820151818401526020810190506100cc565b5050505090500191505060405180910390f35b6101266004803603602081101561011057600080fd5b81019080803590602001909291905050506101f0565b6040518082815260200191505060405180910390f35b6000816010811061014957fe5b016000915054906101000a900473ffffffffffffffffffffffffffffffffffffffff1681565b6101776102ca565b60006010806020026040519081016040528092919082601080156101e6576020028201915b8160009054906101000a900473ffffffffffffffffffffffffffffffffffffffff1673ffffffffffffffffffffffffffffffffffffffff168152602001906001019080831161019c575b5050505050905090565b60008082101580156102035750600f8211155b610275576040517f08c379a00000000000000000000000000000000000000000000000000000000081526004018080602001828103825260088152602001807f6964e8b68ae7958c00000000000000000000000000000000000000000000000081525060200191505060405180910390fd5b336000836010811061028357fe5b0160006101000a81548173ffffffffffffffffffffffffffffffffffffffff021916908373ffffffffffffffffffffffffffffffffffffffff160217905550819050919050565b60405180610200016040528060109060208202803883398082019150509050509056fea265627a7a72315820a309f76f741def30d2b1dff68d4059be9da7d92829bb28e66854cc9fa210631764736f6c63430005100032",
  "source": "pragma solidity ^0.5.4;\n\ncontract Adoption {\n    address[16] public adopters;\n\n    function adopt(uint petId) public returns (uint){\n        require(petId >= 0 && petId <= 15, \"id越界\");\n        adopters[petId] = msg.sender;\n        return petId;\n    }\n\n    function getPetId() public view returns (address[16] memory){\n        return adopters;\n    }\n\n}\n",
  "sourcePath": "/Users/jack/workspace/pet-shop/contracts/Adoption.sol",
  "compiler": {
    "name": "solc",
    "version": "0.5.16+commit.9c3226ce.Emscripten.clang"
  },
  "schemaVersion": "3.4.10",
  "updatedAt": "2022-11-02T10:01:07.731Z",
  "networkType": "ethereum",
  "devdoc": {
    "methods": {}
  },
  "userdoc": {
    "methods": {}
  }
}